:100000000C9462000C948A000C948A000C948A0070
:100010000C948A000C948A000C948A000C948A0038
:100020000C948A000C948A000C948A000C948A0028
:100030000C948A000C948A000C948A000C948A0018
:100040000C94BE010C948A000C942E020C940802AD
:100050000C948A000C948A000C948A000C948A00F8
:100060000C948A000C948A0005A84CCDB2D44EB9E9
:100070003836A9020C50B9918688083CA6AAAA2A4B
:10008000BE000000803F00000000250028002B007B
:1000900000000000240027002A00040404040404D3
:1000A0000404020202020202030303030303010227
:1000B00004081020408001020408102001020408F6
:1000C0001020600211241FBECFEFD8E0DEBFCDBFED
:1000D00011E0A0E0B1E0E8E0FFE002C005900D9281
:1000E000AE33B107D9F721E0AEE3B1E001C01D9214
:1000F000A53FB207E1F710E0C2E6D0E004C02197C7
:10010000FE010E947C07C136D107C9F70E949902FF
:100110000C9482070C9400003FB7F89480914F0133
:1001200090915001A0915101B091520126B5A89B28
:1001300005C02F3F19F00196A11DB11D3FBFBA2F79
:10014000A92F982F8827BC01CD01620F711D811D39
:10015000911D42E0660F771F881F991F4A95D1F7BE
:100160000895AF92BF92CF92DF92EF92FF920F93DA
:100170001F93CF93DF936C017B018B01040F151F3D
:10018000EB015E01AE18BF08C017D10759F06991A5
:10019000D601ED91FC910190F081E02DC601099509
:1001A000892B79F7C501DF91CF911F910F91FF90B6
:1001B000EF90DF90CF90BF90AF900895FC01538DEA
:1001C000448D252F30E0842F90E0821B930B541731
:1001D00010F0CF96089501970895FC01918D828DBE
:1001E000981761F0A28DAE0FBF2FB11D5D968C9157
:1001F000928D9F5F9F73928F90E008958FEF9FEF96
:100200000895FC01918D828D981731F0828DE80F51
:10021000F11D858D90E008958FEF9FEF0895FC010B
:10022000918D228D892F90E0805C9F4F821B9109D8
:100230008F739927089583E591E00E940F0121E0D3
:10024000892B09F420E0822F089580E090E0892B2B
:1002500029F00E941B0181110C9400000895FC01FB
:10026000A48DA80FB92FB11DA35ABF4F2C91848D17
:1002700090E001968F739927848FA689B7892C9374
:10028000A089B1898C91837080648C93938D848DC7
:10029000981306C00288F389E02D80818F7D8083CA
:1002A0000895EF92FF920F931F93CF93DF93EC018A
:1002B00081E0888F9B8D8C8D98131AC0E889F9890D
:1002C000808185FF15C09FB7F894EE89FF89608310
:1002D000E889F98980818370806480839FBF81E091
:1002E00090E0DF91CF911F910F91FF90EF900895D3
:1002F000F62E0B8D10E00F5F1F4F0F731127E02EAE
:100300008C8D8E110CC00FB607FCFACFE889F989E5
:10031000808185FFF5CFCE010E942F01F1CFEB8DBB
:10032000EC0FFD2FF11DE35AFF4FF0829FB7F894B9
:100330000B8FEA89FB8980818062CFCFCF93DF93D7
:10034000EC01888D8823B9F0AA89BB89E889F989ED
:100350008C9185FD03C0808186FD0DC00FB607FC22
:10036000F7CF8C9185FFF2CF808185FFEDCFCE0155
:100370000E942F01E9CFDF91CF9108951F920F9234
:100380000FB60F9211242F933F938F939F93AF93A8
:10039000BF9380914B0190914C01A0914D01B09180
:1003A0004E0130914A0123E0230F2D3758F5019675
:1003B000A11DB11D20934A0180934B0190934C01E4
:1003C000A0934D01B0934E0180914F019091500147
:1003D000A0915101B09152010196A11DB11D8093D0
:1003E0004F0190935001A0935101B0935201BF91DE
:1003F000AF919F918F913F912F910F900FBE0F90D2
:100400001F90189526E8230F0296A11DB11DD2CF8B
:100410001F920F920FB60F9211242F933F934F9379
:100420005F936F937F938F939F93AF93BF93EF935C
:10043000FF9383E591E00E942F01FF91EF91BF911F
:10044000AF919F918F917F916F915F914F913F916C
:100450002F910F900FBE0F901F9018951F920F9223
:100460000FB60F9211242F938F939F93EF93FF93C7
:10047000E0916301F09164018081E0916901F09164
:100480006A0182FD1BC0908180916C018F5F8F7328
:1004900020916D01821741F0E0916C01F0E0ED5A7E
:1004A000FE4F958F80936C01FF91EF919F918F91FB
:1004B0002F910F900FBE0F901F9018958081F4CF51
:1004C000E3E5F1E01382128288EE93E0A0E0B0E071
:1004D00084839583A683B78384E091E091838083AE
:1004E00085EC90E09587848784EC90E097878687F9
:1004F00080EC90E0918B808B81EC90E0938B828BF1
:1005000082EC90E0958B848B86EC90E0978B868BC9
:10051000118E128E138E148EE0EFF1E089E080834D
:1005200080E090E0A0EAB0E481839283A383B48367
:100530000895789484B5826084BD84B5816084BD5B
:1005400085B5826085BD85B5816085BD80916E0071
:10055000816080936E0010928100809181008260A2
:1005600080938100809181008160809381008091DF
:1005700080008160809380008091B10084608093CE
:10058000B1008091B00081608093B00080917A00CA
:10059000846080937A0080917A00826080937A00F0
:1005A00080917A00816080937A0080917A008068DF
:1005B00080937A001092C100E0916301F091640190
:1005C00082E08083E0915F01F09160011082E09110
:1005D0006101F091620180E1808310926B01E091F2
:1005E0006701F091680186E08083E0916501F091F8
:1005F0006601808180618083E0916501F0916601F0
:10060000808188608083E0916501F091660180813E
:1006100080688083E0916501F091660180818F7D23
:10062000808348E250E062E171E083E591E00E945E
:10063000B10042E050E06BE371E083E591E00E949D
:10064000B1008091F00190E0FC01E255FF4F249150
:1006500086569F4FFC018491882399F090E0880F83
:10066000991FFC01E057FF4FA591B491FC01EA5797
:10067000FF4F859194918FB7F894EC91E22BEC9316
:100680008FBF83E88093800089E08093810010927F
:100690008900109288000E948C006093460170933C
:1006A00047018093480190934901C0E0D0E00E9447
:1006B0008C006B017C018091460190914701A091D3
:1006C0004801B0914901A7019601281B390B4A0B3B
:1006D0005B0BCA01B901611571058105910509F42A
:1006E000E5C00E94740520E034E244E759E40E942A
:1006F000D3044B015C0122ED33E54BE752E40E9449
:100700008D06209142013091430140914401509166
:1007100045010E9462042B013C014092420150922B
:10072000430160924401709245012DED3EE74CE398
:1007300053E4C501B4010E948D0620913E01309121
:100740003F0140914001509141010E9462044B01E0
:100750005C0180923E0190923F01A0924001B092D4
:1007600041012BED3FE049EC50E4C301B2010E948E
:10077000880687FD10C02BED3FE049EC50E4C30133
:10078000B2010E94BC0560934201709343018093C3
:100790004401909345012BED3FE049EC50E4C50145
:1007A000B4010E94880687FD10C02BED3FE049ECA4
:1007B00050E4C501B4010E94BC0560933E017093F2
:1007C0003F018093400190934101609142017091FB
:1007D000430180914401909145010E94FA062B014A
:1007E0003C0160913E0170913F01809140019091E8
:1007F00041010E94FA069B01AC01A090F101B0906A
:10080000F2010091F3011091F401C301B2010E94C1
:10081000620420E030E040E05FE30E948D0620E0CB
:1008200030E040E85FE30E94620420E030E040E016
:100830005FE30E948D069501A8010E948D063B0191
:100840004C0120E030E0A9010E94CE0487FF04C0E3
:10085000612C712C812C912C9301A401B501C8014C
:100860000E94CE0487FF02C03501480120E030EC31
:100870004FE754E4B301C4010E948D069501A8011D
:100880000E94D30420E030E040E05FE30E94620475
:100890000E9445057093890060938800C0924601CC
:1008A000D0924701E0924801F0924901209709F463
:1008B000FECE0E941B01882309F4F9CE0E9400009D
:1008C000F6CE5058BB27AA270E9479040C944E06F6
:1008D0000E94400638F00E94470620F039F49F3FFE
:1008E00019F426F40C943D060EF4E095E7FB0C9405
:1008F0002906E92F0E945F0658F3BA1762077307AB
:100900008407950720F079F4A6F50C9481060EF47F
:10091000E0950B2EBA2FA02D0B01B90190010C010F
:10092000CA01A0011124FF27591B99F0593F50F427
:10093000503E68F11A16F040A22F232F342F44277F
:10094000585FF3CF469537952795A795F040539577
:10095000C9F77EF41F16BA0B620B730B840BBAF047
:100960009150A1F0FF0FBB1F661F771F881FC2F7B2
:100970000EC0BA0F621F731F841F48F487957795C6
:100980006795B795F7959E3F08F0B0CF9395880F80
:1009900008F09927EE0F9795879508950E94050610
:1009A00008F481E008950E94E7040C944E060E942A
:1009B000470658F00E94400640F029F45F3F29F0B6
:1009C0000C94290651110C9482060C943D060E9449
:1009D0005F0668F39923B1F3552391F3951B550BEB
:1009E000BB27AA2762177307840738F09F5F5F4F02
:1009F000220F331F441FAA1FA9F335D00E2E3AF041
:100A0000E0E832D091505040E695001CCAF72BD058
:100A1000FE2F29D0660F771F881FBB1F26173707A9
:100A20004807AB07B0E809F0BB0B802DBF01FF27DB
:100A300093585F4F3AF09E3F510578F00C94290689
:100A40000C9482065F3FE4F3983ED4F38695779545
:100A50006795B795F7959F5FC9F7880F911D969594
:100A6000879597F90895E1E0660F771F881FBB1FF0
:100A7000621773078407BA0720F0621B730B840B9D
:100A8000BA0BEE1F88F7E09508950E94670688F07C
:100A90009F5798F0B92F9927B751B0F0E1F0660F42
:100AA000771F881F991F1AF0BA95C9F714C0B13083
:100AB00091F00E948106B1E008950C948106672FA1
:100AC000782F8827B85F39F0B93FCCF386957795B2
:100AD0006795B395D9F73EF490958095709561959B
:100AE0007F4F8F4F9F4F0895E89409C097FB3EF4C6
:100AF00090958095709561957F4F8F4F9F4F99236B
:100B0000A9F0F92F96E9BB279395F69587957795E8
:100B10006795B795F111F8CFFAF4BB0F11F460FFA8
:100B20001BC06F5F7F4F8F4F9F4F16C0882311F000
:100B300096E911C0772321F09EE8872F762F05C014
:100B4000662371F096E8862F70E060E02AF09A95AF
:100B5000660F771F881FDAF7880F9695879597F9A4
:100B600008950E94400620F019F00E94470650F4B4
:100B70000C943D060C948206E92F0E945F0688F3D0
:100B80005523B1F3E7FB6217730784079507A8F1B4
:100B900089F3E92FFF2788232AF03197660F771F03
:100BA000881FDAF7952F5527442332F09150504093
:100BB000220F331F441FD2F7BB27E91BF50B621B23
:100BC000730B840BB109B1F222F4620F731F841FFF
:100BD000B11D31972AF0660F771F881FBB1FEFCF1B
:100BE0009150504062F041F0882332F0660F771F39
:100BF000881F91505040C1F793950C942F0686950D
:100C0000779567959F5FD9F7F7CF990F0008550F34
:100C1000AA0BE0E8FEEF16161706E807F907C0F082
:100C200012161306E407F50798F0621B730B840B8A
:100C3000950B39F40A2661F0232B242B252B21F464
:100C400008950A2609F4A140A6958FEF811D811D04
:100C5000089597F99F6780E870E060E008959F3FEE
:100C600031F0915020F4879577956795B795880F67
:100C7000911D9695879597F908959FEF80EC0895BB
:100C800000240A941616170618060906089500246B
:100C90000A9412161306140605060895092E0394E5
:100CA000000C11F4882352F0BB0F40F4BF2B11F459
:100CB00060FF04C06F5F7F4F8F4F9F4F089557FDB8
:100CC0009058440F551F59F05F3F71F04795880FBA
:100CD00097FB991F61F09F3F79F087950895121651
:100CE00013061406551FF2CF4695F1DF08C01616FD
:100CF00017061806991FF1CF8695710561050894AE
:100D00000895E894BB2766277727CB0197F90895C4
:100D10000E94050608F48FEF08950E94A0060C9427
:100D20004E060E94400638F00E94470620F09523A8
:100D300011F00C9429060C943D0611240C948206A3
:100D40000E945F0670F3959FC1F3950F50E0551F09
:100D5000629FF001729FBB27F00DB11D639FAA2710
:100D6000F00DB11DAA1F649F6627B00DA11D661F5F
:100D7000829F2227B00DA11D621F739FB00DA11D80
:100D8000621F839FA00D611D221F749F3327A00D3A
:100D9000611D231F849F600D211D822F762F6A2FD6
:100DA00011249F5750409AF0F1F088234AF0EE0F3B
:100DB000FF1FBB1F661F771F881F91505040A9F768
:100DC0009E3F510580F00C9429060C9482065F3FEB
:100DD000E4F3983ED4F3869577956795B795F795A4
:100DE000E7959F5FC1F7FE2B880F911D969587951C
:100DF00097F908959F930E9404070F9007FCEE5FF8
:100E00000C942D070C943D060E946706D8F3E894D5
:100E1000E0E0BB279F57F0F02AED3FE049EC06C029
:100E2000EE0FBB0F661F771F881F28F0B23A6207CC
:100E30007307840728F0B25A620B730B840BE39597
:100E40009A9572F7803830F49A95BB0F661F771F1A
:100E5000881FD2F790480C943106EF93E0FF07C04B
:100E6000A2EA2AED3FE049EC5FEB0E9479040E9480
:100E70004E060F90039401FC9058E8E6F0E00C94C5
:100E800041079F938F937F936F93FF93EF939B0102
:100E9000AC010E948D06EF91FF910E9455072F91A2
:100EA0003F914F915F910C948D06DF93CF931F93E9
:100EB0000F93FF92EF92DF927B018C01689406C042
:100EC000DA2EEF010E94A006FE01E894A59125917B
:100ED000359145915591A6F3EF010E947904FE01E9
:100EE0009701A801DA9469F7DF90EF90FF900F91D6
:100EF0001F91CF91DF910895EE0FFF1F0590F491A0
:080F0000E02D0994F894FFCFE5
:100F0800000000005101B100DE009E010F01ED005C
:100F1800010148696768537065656450574D4441DD
:100F2800432053756D206F662054776F2053696E88
:0E0F38006573204578616D706C65000D0A00D0
:00000001FF
