:100000000C9423080C9440080C9440080C9440086D
:100010000C9440080C9440080C9440080C94400840
:100020000C9440080C9440080C9440080C94400830
:100030000C9440080C9440080C9440080C94400820
:100040000C9442080C9440080C9440080C9440080E
:100050000C9440080C9440080C9440080C94400800
:100060000C9440080C944008000000002500280073
:100070002B0000000000240027002A0004040404D0
:100080000404040402020202020203030303030342
:10009000010204081020408001020408102001021F
:1000A00004081020CDC9DAD6DDDDCABFB4A9A0840A
:1000B0007969715C515851515E635D7D66705C5128
:1000C000494132271E0A0417040D1C2234424C4FAA
:1000D0005B5752584E4038322022191D1B30473290
:1000E0003861505A627760686965523A3A2E1A212F
:1000F0002B2A43484B5A665B656269785B584B36DE
:100100002C2E30232A353D494E585E767A6C726B20
:100110005D58444C453630323632473B616F727021
:10012000778069786B5E63554545353941444B604E
:1001300062647A81828F7C807A7B755E4D59453FFF
:1001400047475C546F6D89968A95878B86756A6779
:1001500064475E4B5262676676858E9393A48A9855
:100160007D856C6B705757635951717C767B8DA47C
:10017000A29C9B968A7476796F5C50525D68716B15
:10018000868285929BA69B90927A5F715E654F4FA7
:100190006849594D5C778B84898F87898575676736
:1001A000594D5341464E46555D6878878D84817020
:1001B00076645F584E3939362D3C4F5B4A606C6E21
:1001C0007B73786D705F574B493B3C252035414927
:1001D0004F6B63697682706A6D695D4739321E368E
:1001E000352C2B3C5B516A5F6F676A5C6D56493FEB
:1001F0003727253233313149505D5D625F6F676A61
:10020000634649363621272236383E4F3B51606AD5
:1002100076695B5F5A5C47453F352F37224143354E
:10022000465E6B6D776B68695A53414239372A21B4
:10023000283533424452515E697653546650523EDB
:10024000382E202F2E2E2B44494866686D6C736B18
:1002500063594646372C3B2935214142504E6B6647
:100260006E767C6D685F553D3731373432323658A3
:10027000536667617E6C74735B6759543C453634D2
:10028000324558505A5D7E7F9386787A735E675008
:10029000564246424B4554625B738C7C957C827D12
:1002A0007D726A5A5F56455157446974757E8A8CCF
:1002B00092999C878B6E746C6854493D58565B6468
:1002C0006D6D7F8D878F8873806C66694C4F464853
:1002D0003C4C4A695F7871778582897467585F42C0
:1002E0004244462C3E363D535062666E87707C6CAD
:1002F0005D5E5C3D41232F26393D4944565660746E
:100300007A78796768595B402F322D263015373758
:100310004D3D5550585E586C4E443C302C35252888
:10032000262D3B474D606A8A898296909BA39182D5
:10033000857A7F7E91979DAACAC9D5E6EEF6FFE63B
:10034000E3CBB7AE9597986D767A757F7882849077
:100350007F8C7F76755F5B373C22281614072C1D37
:1003600038414856585154525B3B3C46292D34265F
:100370001C192F3E555E555A5E7C6E755B61494374
:100380003E29332D3F344148545F5C657976747360
:10039000655F5056464233333B3140455065627687
:1003A000877A76727D5B61653E4641433756495A8E
:1003B00054656C80887C887675765A564C523946DE
:1003C0004C484E4D5D72847F88919689856B7D5D2A
:1003D00051494C4D445E5464707F878F99989B8B34
:1003E000878B7E64675B50565E66736D7F888E9BDD
:1003F000B39FA5949A8F8E72616853587465747C0C
:1004000085A38C96A39CA2A495927E7274675D646A
:100410006664657D847C9C8CA4B69D91927E7D7182
:10042000685D625E5F576D7A787E8E97999E938E37
:1004300083867472505F58504B6250646E707A8637
:10044000938E838C866B726E5F5344505151515E14
:100450006377777B7F7D84736D6B574D42403B396B
:1004600031404860584E7A7D8C76757E716755496B
:10047000444F373434313D555E5F666476827E6525
:10048000655C48384537373531382D3F566A6783C4
:10049000777777676369544F434134393838453843
:1004A0005359637B7376786F655F4F443F3B2E1BD8
:1004B00027253A3C4B595B6D7F6A77615D585C54E8
:1004C0003638323026353E424B5C6C707482787020
:1004D000656554513E393233433B435355616C7625
:1004E0007B687374695E5249453E38353A41414DE7
:1004F0005A7962756E7777717C635F514648322E08
:100500003340453456647681768C7E6E6A625F52E3
:10051000474638453C47574E5661867F728C8984E2
:10052000857A65675455413B485A5C64747C85877D
:100530008C95898D837068615C4856564559666C08
:10054000757F86938686978F83827068705E434C32
:1005500059545F566A7781907895908C787355538B
:1005600049413D323F5C51586665687C8A8E7B7399
:10057000725D6B5849483A343C3E4A4A60686E7531
:10058000787B6F72756B474D413B333A322A3F4758
:100590004C686564726C706B5E545C4343221F1E32
:1005A0001D2E31323C4E49605D646C6270533F3A9F
:1005B000422E2E22314B4D5D637A888DA19EA79EDF
:1005C000AAA8AB919B8B94979FA0B9B0D0D9DFE933
:1005D000E9F1DADDCFC29EA0949668724C6D566147
:1005E0007C7478726C78796E55564F2B24231B13CC
:1005F000281D28202C3E54595D5E6856554A4741B7
:10060000362823282125373C40526A6C6579757C51
:10061000644A4F454034353E31324C445E58637C29
:1006200074706F7C63625A4C4C443A404138435278
:100630006765737D777C736D6B6667414D434438A6
:10064000454B4B555A64697D8E7F877F807C5B5418
:10065000494B464E444D615D74857B8399868F93EB
:100660007C87755D445A524F5046706C7E7D8C8FEE
:100670009E91999C89808E766F6F6A5552626D82C9
:10068000858B8A96A39F9E9797918E787A625F64F6
:10069000657264757C8C9F9AAEAAABA1A083887C9E
:1006A0006F745C4E5969616D718A888B9C969D9AB6
:1006B00091837871695956555F5C676C71747C8E53
:1006C0008E8992938D816C6A53585252414F55597D
:1006D0006F77828680807F817375655F46513A416E
:1006E0004E43475B726D677C7C7A80726B6D5B50AA
:1006F0004F4736383B443F435163657A7D816B8079
:1007000076594C46383F313A3437384E4A4F667244
:100710006A76807450655E4338452340353C3740E7
:100720004B4F5E726A74707A665A58423136322480
:1007300037394850535772706D707F6B61555E4604
:100740003634382F21392F4F6964657A6B7A747685
:1007500064534E473729382F393336385655637925
:100760007173727B604D533E2F313C3526342548E2
:100770005A526A69718389656D505C403B302F35F0
:1007800037334545536D58687C767476685A4C4CBF
:10079000382E363F3435426059646E747883777BE7
:1007A00072635A614E42393546404752536D7A82E0
:1007B000867C997B7F816A676D463E444F4C4862D8
:1007C000626D827B88938B908A767062564A4C5118
:1007D0004040596F637B7C897D80837F8B636D6D27
:1007E00050544048494857585D626A8A7D7B7182FF
:1007F0007C71574E4E292D412F393F4C4A5A626524
:10080000737B776E6A5F51473C402C2D45304143E6
:100810005B5662687B666F6662595142442F2C2694
:100820002C223537385F59645F6B5961593947312C
:1008300023221824172C32404C4E556A6977718058
:10084000707A645C5A6F5D69705C88A1B8BBD2CE67
:10085000D9E5E4CFDED2B8C5A0AB9C8F938F949E30
:100860009B9595979B929D857F714D503A2C2721A2
:100870001B2322303744475652574C414A3F3822B7
:100880001A1A1A0615202B3D3C5D59696A5D675A94
:100890005A60493233282A312C2C49464E515D7119
:1008A00081736A725F534647453C33302D403C4963
:1008B0004A5A576E7273745F67554C4741303430F3
:1008C00033404A5C525565756D7E756C7262564256
:1008D000393E40303041495361617280798E89766A
:1008E000746067564A4845464A525759657A7D7C36
:1008F0008A929488828676636451605065535D6401
:100900006A798385A09291A6887E776B5D504F4867
:10091000574C63717C798C8B909C9D8C8787706E13
:1009200063615B505B54648E777983959D9191945C
:100930008F7F72695B605C584C5B556F7171807C16
:10094000909891778A6E6D5F5B584E44314C545C41
:100950006A6D718083817A8977734D4A4644352C5C
:10096000413D4B465F6F6C6F7F7A767F7956444C82
:100970003D38263D372B434757536A62687D7A6F6F
:100980005D5F473D30402E1A38323F37425C5E6231
:1009900077736671534B474C3E1D332A2A2F4030E4
:1009A0004D475860607169616553503E36332A2562
:1009B0002B383A444755635D66666D695B4C40472A
:1009C00020252A32272C223D4D4F5B645F606664F0
:1009D0004F5332363B2D2A10323731295256575554
:1009E0007967625B5B4E373A293F26291F283D3ADB
:1009F00049455F6A695C626B675B50412D3E22230B
:100A0000272F2B42564E616A78627A6C5A5C4634C4
:100A1000252D282A2C2E46364B525C627B7A70702C
:100A200073625F2A323B30243A393E4A555F65652E
:100A30007C70777766645D443D37363437314C4996
:100A40006C58717C817E7F7F7567684A4C4742464F
:100A50005451556366697C7F8C7284796C756D60C6
:100A60005C3C3D3746484B575F64767086837C8597
:100A70007F635C4A533936383F314646585B74636E
:100A80007E788269695B4E404334423832332E446B
:100A900051545E7571656B6A6253524923232D2D43
:100AA000332839494F585E666366695B634D362D5E
:100AB0002E2C1F251E18212F5045494D515B47599B
:100AC0004A4437372B201B2027293552545B6C6F43
:100AD0008685977D92807E787D82847D7D939DB48E
:100AE000B3C6CDDDDAEEDBE0D1C0B4A1949780735C
:100AF0006E717A6D74797E846D8063645B41302E93
:100B00001F130E010E0E1023292B45454650474C4E
:100B10003F462D2B1A1203111A1B2B2F3D3D4F5F01
:100B2000644353614652413228342E3219283132FF
:100B3000544D4E615D7A685C6D5D4729321A1F29FC
:100B40001F3429334958676874566F6955683D47A3
:100B50003A32241D3D37354B616870767C7B6F6C73
:100B60007A51523A37412C3836443F5B6369767B81
:100B70008B8185796965574C3E47433E3C4A5257C5
:100B800066797D908783827F7B7F5E674656484A81
:100B900048535C637878809194868891897E7A5FE7
:100BA0005C41564F56556462858284899A9A96882C
:100BB00085847E6966535C505C5A66538388949141
:100BC000858B8475858170655B554B4D5847546B9B
:100BD000646D73808E8D79887B636A4F5443413B8B
:100BE000543D42526F70727A798683787766685482
:100BF00048393233333E4350555E697166706E68D2
:100C0000635754453A20232B2C302F483E49656BBF
:100C10005F7A67705B55473D382B26272A3035436E
:100C2000464A6365646668585A4C393D312620242B
:100C300021362B3E304B505B60666562505136402A
:100C4000321E1626212236454D5556555C5B6C6387
:100C5000504F37432F183231232D2E2D3D486162DE
:100C60005F5A665A5E4A4E302E2F1026251F3836A0
:100C7000385454585D725D605643473A38262B0EFF
:100C8000232328374A50625A5C5D59666A4B4536C1
:100C90003A2D1C171D2A29334D4955696D5F726421
:100CA0005142413B28251B1B212C2D3E5853606A85
:100CB0006E65637056594C3A382A252628353746D2
:100CC000595C6D767879756D6662523C462C403A77
:100CD000363F3D56726B627A8175817D6F6F6D5ABA
:100CE0005142383A424C4D5161607C7F827B82791F
:100CF0006C655F5D48444A3E383F444A6863857A84
:100D00008D7D80737A624E64414F40363623404C6D
:100D10005B5E5A767E7A7C715E5D56384137281C60
:100D2000362A3438485C616060866C5C6A504D3E9F
:100D30003A25302A2D203B2D4155635664665E5777
:100D400054584A312C2C2711171A2F2B3649445846
:100D50005C545756464236251D131A1716281D3067
:100D60003C5A555C726B6E6C7566545C7156616270
:100D70005F658B93ADA8BDCFC8DEDBE8DBD0C3B326
:100D8000AAA896908D94969B969DA1A3A4938F83D9
:100D90006D6857503C211C1C1A241B32303E2E4BD0
:100DA0004349484D353522231E14190E1608142ABE
:100DB0003046515D5B5959595E4A4B42312E232FC3
:100DC0001C29213F46465A5E667B6F575C60473A56
:100DD0003F3124202D33313E57546866705E6D6E6E
:100DE0005E5C4B372F2E302F352B33444E5E6568BB
:100DF000707C715A65565B4F46392E373148424FE9
:100E00004C6B637580748577757663514E3E4133C4
:100E10003A4958565D666C8075788C7E826C6B5F43
:100E20005A574F47415E555E7778757C9397888710
:100E300080736868695850504E555B776A888F9008
:100E40009E9595989B857D5E5367485A4A4E65618D
:100E5000707D898D9B9C9289877F7A625B51535DFF
:100E6000534947675F7A888D928D9A84766D67645F
:100E700052504753444A5C5A687575788885827B1E
:100E8000776D634552493C2D3A424A535955606B40
:100E9000847B6E746E5C53544433323A2E38344C37
:100EA0004653696E7E7B72776651434A3725301F01
:100EB0003D3D3349444C6763736560665C64404202
:100EC00043312B251E24392F595E5B6763735D61A7
:100ED0005D52363F27262022282C2E41433F5D6C51
:100EE000696F65645B4440322D2C1D232C22332D09
:100EF0004E51575B6D6165566A4F4D313A31302026
:100F00001D2329474755606165726C6159585746E2
:100F1000403019351E1C2631535352606974616488
:100F20006347493439273330212B3A3A4E5A4B62C2
:100F30005F5F6656595557453E1C28272B2D3E436B
:100F4000485653755A716B6C5A5D434B3938312A88
:100F5000223939504C5C637D7971707B64645F5CCD
:100F600045314C34353C4E4A537872717A838D7CCE
:100F700073645D514F45374B4B4B465D64738486BC
:100F800087838988806D5555535048444C5148504B
:100F9000637B837B8C928F818073715E5C384B3571
:100FA000494E474E5B617080848689766E655B3EF4
:100FB0004C2E343C2E31574F565D676B7D65686A09
:100FC0006251574B3F252F2A2D303B4544555468DD
:100FD000686169625C4D443D1E3027201F2D343608
:100FE0005345535868635C654F3045332A1B0F13D4
:100FF000111B262E34474E505D5A66625B514A558E
:101000003C393C3848475C8281A29BAEBFC7B9C817
:10101000C8C8C0BCA2A0A0A4A395B4B7A9CBC1CE98
:10102000BEB1BCAD9981776C633E3D363422363615
:1010300041454D4A4F52544B39342A151016000A77
:10104000130C2040A20911241FBECFEFD8E0DEBF51
:10105000CDBF21E0A0E0B1E001C01D92A431B207F4
:10106000E1F718E0C3E2D8E004C02197FE010E9436
:10107000E10BC232D107C9F70E948C080C94E70B30
:101080000C9400001F920F920FB60F9211242F9311
:101090003F938F939F93AF93BF9380911001909153
:1010A0001101A0911201B091130130910F0123E0C1
:1010B000230F2D3758F50196A11DB11D20930F0167
:1010C0008093100190931101A0931201B09313012A
:1010D00080910B0190910C01A0910D01B0910E0136
:1010E0000196A11DB11D80930B0190930C01A0935B
:1010F0000D01B0930E01BF91AF919F918F913F91E0
:101100002F910F900FBE0F901F90189526E8230F78
:101110000296A11DB11DD2CF789484B5826084BDA2
:1011200084B5816084BD85B5826085BD85B58160EB
:1011300085BD80916E00816080936E001092810069
:101140008091810082608093810080918100816024
:1011500080938100809180008160809380008091E5
:10116000B10084608093B1008091B0008160809371
:10117000B00080917A00846080937A0080917A0038
:10118000826080937A0080917A00816080937A00F7
:1011900080917A00806880937A001092C1008091DB
:1011A000000190E0FC01E057FF4F249184589F4FCD
:1011B000FC018491882399F090E0880F991FFC012D
:1011C000EE58FF4FA591B491FC01E859FF4F85916E
:1011D00094918FB7F894EC91E22BEC938FBF83E856
:1011E0008093800089E080938100109289001092A2
:1011F0008800C0E0D0E03FB7F89480910B01909157
:101200000C01A0910D01B0910E0126B5A89B05C05F
:101210002F3F19F00196A11DB11D3FBF409107015D
:10122000509108016091090170910A01BA2FA92F0C
:10123000982F8827820F911DA11DB11DE2E0880F14
:10124000991FAA1FBB1FEA95D1F7841B950BA60B0C
:10125000B70B883E9340A105B10508F468C048511A
:101260005C4F6F4F7F4F409307015093080160938D
:10127000090170930A01E0910501F0910601EC5516
:10128000FF4F649170E090E080E00E94C40A20E08B
:1012900030E04FE753E40E94210A20E030E040EACA
:1012A00050E40E94740B7B018C0120E030E0A90126
:1012B0000E941C0A87FF04C0E12CF12C00E010E022
:1012C000A0900101B0900201C0900301D0900401F0
:1012D0009701A801B501C6010E941C0A87FF02C040
:1012E0007501860120E030EC4FE754E4B701C801F6
:1012F0000E94740B9501A6010E94210A20E030E0B3
:1013000040E05FE30E94B0090E94930A7093890055
:101310006093880080910501909106010196803AC2
:101320002FE0920750F490930601809305012097D7
:1013300009F461CF0E9400005ECF10920601109266
:101340000501F5CFE0E0F1E089E0808380E090E006
:10135000A0EAB0E481839283A383B48308955058B4
:10136000BB27AA270E94C7090C943A0B0E942C0B9A
:1013700038F00E94330B20F039F49F3F19F426F423
:101380000C94290B0EF4E095E7FB0C94230BE92F4A
:101390000E944B0B58F3BA1762077307840795072F
:1013A00020F079F4A6F50C946D0B0EF4E0950B2E5D
:1013B000BA2FA02D0B01B90190010C01CA01A001A7
:1013C0001124FF27591B99F0593F50F4503E68F102
:1013D0001A16F040A22F232F342F4427585FF3CF43
:1013E000469537952795A795F0405395C9F77EF414
:1013F0001F16BA0B620B730B840BBAF09150A1F05D
:10140000FF0FBB1F661F771F881FC2F70EC0BA0FE2
:10141000621F731F841F48F4879577956795B7956A
:10142000F7959E3F08F0B0CF9395880F08F0992765
:10143000EE0F9795879508950E94FF0A08F481E0C2
:1014400008950E94350A0C943A0B0E94330B58F011
:101450000E942C0B40F029F45F3F29F00C94230BE1
:1014600051110C946E0B0C94290B0E944B0B68F3DA
:101470009923B1F3552391F3951B550BBB27AA274D
:1014800062177307840738F09F5F5F4F220F331F87
:10149000441FAA1FA9F335D00E2E3AF0E0E832D04F
:1014A00091505040E695001CCAF72BD0FE2F29D052
:1014B000660F771F881FBB1F261737074807AB0724
:1014C000B0E809F0BB0B802DBF01FF2793585F4F99
:1014D0003AF09E3F510578F00C94230B0C946E0B60
:1014E0005F3FE4F3983ED4F3869577956795B7957B
:1014F000F7959F5FC9F7880F911D9695879597F986
:101500000895E1E0660F771F881FBB1F62177307FE
:101510008407BA0720F0621B730B840BBA0BEE1F13
:1015200088F7E09508950E94530B88F09F5798F034
:10153000B92F9927B751B0F0E1F0660F771F881FD8
:10154000991F1AF0BA95C9F714C0B13091F00E94F2
:101550006D0BB1E008950C946D0B672F782F8827E1
:10156000B85F39F0B93FCCF3869577956795B39519
:10157000D9F73EF490958095709561957F4F8F4F88
:101580009F4F0895E89409C097FB3EF4909580958D
:10159000709561957F4F8F4F9F4F9923A9F0F92F39
:1015A00096E9BB279395F695879577956795B795B7
:1015B000F111F8CFFAF4BB0F11F460FF1BC06F5F9D
:1015C0007F4F8F4F9F4F16C0882311F096E911C0AF
:1015D000772321F09EE8872F762F05C0662371F0D0
:1015E00096E8862F70E060E02AF09A95660F771FE4
:1015F000881FDAF7880F9695879597F90895990FC0
:101600000008550FAA0BE0E8FEEF16161706E807CC
:10161000F907C0F012161306E407F50798F0621BED
:10162000730B840B950B39F40A2661F0232B242BC2
:10163000252B21F408950A2609F4A140A6958FEFE1
:10164000811D811D089597F99F6780E870E060E033
:1016500008959FEF80EC089500240A94161617064B
:1016600018060906089500240A9412161306140693
:1016700005060895092E0394000C11F4882352F0F6
:10168000BB0F40F4BF2B11F460FF04C06F5F7F4FAE
:101690008F4F9F4F089557FD9058440F551F59F095
:1016A0005F3F71F04795880F97FB991F61F09F3F4F
:1016B00079F087950895121613061406551FF2CF78
:1016C0004695F1DF08C0161617061806991FF1CFC8
:1016D00086957105610508940895E894BB276627EF
:1016E0007727CB0197F908950E94870B0C943A0B4A
:1016F0000E942C0B38F00E94330B20F0952311F040
:101700000C94230B0C94290B11240C946E0B0E9447
:101710004B0B70F3959FC1F3950F50E0551F629FDF
:10172000F001729FBB27F00DB11D639FAA27F00D3A
:10173000B11DAA1F649F6627B00DA11D661F829F61
:101740002227B00DA11D621F739FB00DA11D621F46
:10175000839FA00D611D221F749F3327A00D611D63
:10176000231F849F600D211D822F762F6A2F112445
:101770009F5750409AF0F1F088234AF0EE0FFF1F78
:10178000BB1F661F771F881F91505040A9F79E3FCF
:10179000510580F00C94230B0C946E0B5F3FE4F327
:1017A000983ED4F3869577956795B795F795E79525
:1017B0009F5FC1F7FE2B880F911D9695879597F92E
:1017C0000895EE0FFF1F0590F491E02D0994F89411
:0217D000FFCF49
:00000001FF
