:100000000C9453000C947B000C947B000C947B00AC
:100010000C947B000C947B000C947B000C947B0074
:100020000C947B000C947B000C947B000C947B0064
:100030000C947B000C947B000C947B000C947B0054
:100040000C9400020C947B000C9470020C944A02F5
:100050000C947B000C947B000C947B000C947B0034
:100060000C947B000C947B0000000000250028000D
:100070002B0000000000240027002A0004040404D0
:100080000404040402020202020203030303030342
:10009000010204081020408001020408102001021F
:1000A00004081020A20211241FBECFEFD8E0DEBF4B
:1000B000CDBF11E0A0E0B1E0ECE3FEE002C00590AE
:1000C0000D92A233B107D9F721E0A2E3B1E001C05C
:1000D0001D92AD3DB207E1F710E0C3E5D0E004C0EA
:1000E0002197FE010E941607C235D107C9F70E9469
:1000F000DB020C941C070C9400003FB7F89480912D
:10010000370190913801A0913901B0913A0126B59B
:10011000A89B05C02F3F19F00196A11DB11D3FBF3F
:10012000BA2FA92F982F8827BC01CD01620F711D0E
:10013000811D911D42E0660F771F881F991F4A9508
:10014000D1F70895AF92BF92CF92DF92EF92FF92D4
:100150000F931F93CF93DF936C017B018B01040FEF
:10016000151FEB015E01AE18BF08C017D10759F08B
:100170006991D601ED91FC910190F081E02DC601CD
:100180000995892B79F7C501DF91CF911F910F91C7
:10019000FF90EF90DF90CF90BF90AF900895FC015B
:1001A000538D448D252F30E0842F90E0821B930BDC
:1001B000541710F0CF96089501970895FC01918D82
:1001C000828D981761F0A28DAE0FBF2FB11D5D9685
:1001D0008C91928D9F5F9F73928F90E008958FEF27
:1001E0009FEF0895FC01918D828D981731F0828DDB
:1001F000E80FF11D858D90E008958FEF9FEF089532
:10020000FC01918D228D892F90E0805C9F4F821B95
:1002100091098F73992708958BE391E00E94000163
:1002200021E0892B09F420E0822F089580E090E0FE
:10023000892B29F00E940C0181110C940000089573
:10024000FC01A48DA80FB92FB11DA35ABF4F2C914B
:10025000848D90E001968F739927848FA689B78942
:100260002C93A089B1898C91837080648C93938D39
:10027000848D981306C00288F389E02D80818F7DDC
:1002800080830895EF92FF920F931F93CF93DF9394
:10029000EC0181E0888F9B8D8C8D98131AC0E889C2
:1002A000F989808185FF15C09FB7F894EE89FF8991
:1002B0006083E889F98980818370806480839FBF2F
:1002C00081E090E0DF91CF911F910F91FF90EF902F
:1002D0000895F62E0B8D10E00F5F1F4F0F7311273F
:1002E000E02E8C8D8E110CC00FB607FCFACFE8897A
:1002F000F989808185FFF5CFCE010E942001F1CFE1
:10030000EB8DEC0FFD2FF11DE35AFF4FF0829FB7ED
:10031000F8940B8FEA89FB8980818062CFCFCF93DD
:10032000DF93EC01888D8823B9F0AA89BB89E8891D
:10033000F9898C9185FD03C0808186FD0DC00FB6C3
:1003400007FCF7CF8C9185FFF2CF808185FFEDCF41
:10035000CE010E942001E9CFDF91CF910895FC01E9
:1003600001900020E9F73197AF01481B590BBC0100
:100370008BE391E00C94A2008F929F92AF92BF9278
:100380000F931F93CF93DF93CDB7DEB7A1970FB62F
:10039000F894DEBF0FBECDBF19A2423008F44AE088
:1003A0008E010F5D1F4F842E912CB12CA12CA50125
:1003B00094010E94F406E62FB901CA01EA30F4F470
:1003C000E05DD801EE938D01232B242B252B79F7AB
:1003D00090E080E0109719F0CD010E94AF01A19646
:1003E0000FB6F894DEBF0FBECDBFDF91CF911F9146
:1003F0000F91BF90AF909F908F900895E95CE1CFEF
:100400001F920F920FB60F9211242F933F938F9349
:100410009F93AF93BF938091330190913401A0914A
:100420003501B09136013091320123E0230F2D3791
:1004300058F50196A11DB11D20933201809333011F
:1004400090933401A0933501B09336018091370128
:1004500090913801A0913901B0913A010196A11D06
:10046000B11D8093370190933801A0933901B09367
:100470003A01BF91AF919F918F913F912F910F9032
:100480000FBE0F901F90189526E8230F0296A11D0E
:10049000B11DD2CF1F920F920FB60F9211242F933E
:1004A0003F934F935F936F937F938F939F93AF93FC
:1004B000BF93EF93FF938BE391E00E942001FF91A4
:1004C000EF91BF91AF919F918F917F916F915F91CC
:1004D0004F913F912F910F900FBE0F901F90189545
:1004E0001F920F920FB60F9211242F938F939F9309
:1004F000EF93FF93E0914B01F0914C018081E091EB
:100500005101F091520182FD1BC0908180915401F4
:100510008F5F8F7320915501821741F0E091540154
:10052000F0E0E55CFE4F958F80935401FF91EF91D1
:100530009F918F912F910F900FBE0F901F90189544
:100540008081F4CFEBE3F1E01382128288EE93E036
:10055000A0E0B0E084839583A683B78384E091E034
:100560009183808385EC90E09587848784EC90E08C
:100570009787868780EC90E0918B808B81EC90E070
:10058000938B828B82EC90E0958B848B86EC90E051
:10059000978B868B118E128E138E148EE8EDF1E000
:1005A00089E0808380E090E0A0EAB0E481839283D8
:1005B000A383B4830895789484B5826084BD84B5A0
:1005C000816084BD85B5826085BD85B5816085BD4E
:1005D00080916E00816080936E0010928100809106
:1005E000810082608093810080918100816080938E
:1005F0008100809180008160809380008091B100B3
:1006000084608093B1008091B00081608093B000DD
:1006100080917A00846080937A0080917A00826071
:1006200080937A0080917A00816080937A00809133
:100630007A00806880937A001092C100E0914B01AB
:10064000F0914C0182E08083E0914701F0914801F4
:100650001082E0914901F0914A0180E1808310927B
:100660005301E0914F01F091500186E08083E091C9
:100670004D01F0914E01808180618083E0914D01B8
:10068000F0914E01808188608083E0914D01F0916E
:100690004E01808180688083E0914D01F0914E0190
:1006A00080818F7D80838091D80190E0FC01E057AC
:1006B000FF4F249184589F4FFC018491882399F027
:1006C00090E0880F991FFC01EE58FF4FA591B4915F
:1006D000FC01E859FF4F859194918FB7F894EC9104
:1006E000E22BEC938FBF83E88093800089E08093B6
:1006F0008100109289001092880090E4692EC0E079
:10070000D0E060927C0080917A00806480937A00CF
:1007100080917A0086FDFCCF60917800709179001D
:10072000072E000C880B990B0E94CD052AE038E2B9
:1007300040EA5BE30E9482066B017C0120E030E02E
:10074000A9010E9425055C2CBD2C870187FF04C0F0
:10075000512CB12C00E010E07090D9018090DA01AA
:100760009090DB01A090DC01252D3B2DA801672D89
:10077000782D892D9A2D0E94250587FF04C0572CBE
:10078000B82C092D1A2D20E030EC4FE754E4652DEC
:100790007B2DC8010E948206272D382D492D5A2D08
:1007A0000E942A0520E030E040E05FE30E94B904A7
:1007B0000E949C05709389006093880082E191E01B
:1007C0000E94AF01A7019601C701B6010E94EF0682
:1007D0008823E1F180E291E00E94AF018CE291E098
:1007E0000E94AF018FE291E00E94AF010E947D0064
:1007F0004B015C0184EFC82EDD24D394E12CF12C55
:100800000E947D00681979098A099B09683E734036
:1008100081059105A8F3F1E0CF1AD108E108F108AC
:1008200028EE820E23E0921EA11CB11CC114D1043B
:10083000E104F10429F7209709F463CF0E940C0129
:10084000882309F45ECF0E9400005BCF4601570168
:10085000E894B7F82FEF3FEF4FE75FE7C501B4012A
:100860000E94EF0681110DC02FEF3FEF4FE75FE7CA
:10087000C501B4010E94250518161CF484E291E01C
:10088000ABCF2FEF3FEF4FE75FE4C701B6010E9408
:100890007D0618161CF488E291E09ECF2FEF3FEF03
:1008A0004FE75FECC701B6010E94250587FDF3CF36
:1008B00020E030E0A901C701B6010E94250587FFAD
:1008C00009C06DE28BE391E00E944201F7FAF094D7
:1008D000F7F8F0942AE037ED43EA5BE3C701B6018D
:1008E0000E94B9044B015C010E949C056B017C01D4
:1008F0000E94CB059B01AC01C501B4010E94B80464
:100900004B015C014AE0C701B6010E94BC016EE2E6
:100910008BE391E00E94420120E030E040E251E4AC
:10092000C501B4010E9482064B015C010E949C0536
:100930006B01F12CE12C4AE0C701B6010E94BC0119
:10094000C701B6010E94CB059B01AC01C501B401F2
:100950000E94B80420E030E040E251E40E948206A8
:100960000E949C0590E080E04AE00E94BC0136CFE6
:100970005058BB27AA270E94D0040C9443060E941B
:10098000350638F00E943C0620F039F49F3F19F4F8
:1009900026F40C9432060EF4E095E7FB0C942C063A
:1009A000E92F0E94540658F3BA17620773078407A9
:1009B000950720F079F4A6F50C9476060EF4E095F0
:1009C0000B2EBA2FA02D0B01B90190010C01CA0109
:1009D000A0011124FF27591B99F0593F50F4503EB4
:1009E00068F11A16F040A22F232F342F4427585FA6
:1009F000F3CF469537952795A795F0405395C9F7BE
:100A00007EF41F16BA0B620B730B840BBAF0915075
:100A1000A1F0FF0FBB1F661F771F881FC2F70EC014
:100A2000BA0F621F731F841F48F4879577956795E7
:100A3000B795F7959E3F08F0B0CF9395880F08F0D3
:100A40009927EE0F9795879508950E94080608F458
:100A500081E008950E943E050C9443060E943C06E6
:100A600058F00E94350640F029F45F3F29F00C94BD
:100A70002C0651110C9477060C9432060E945406F1
:100A800068F39923B1F3552391F3951B550BBB27BD
:100A9000AA2762177307840738F09F5F5F4F220F02
:100AA000331F441FAA1FA9F335D00E2E3AF0E0E8F9
:100AB00032D091505040E695001CCAF72BD0FE2F43
:100AC00029D0660F771F881FBB1F261737074807D7
:100AD000AB07B0E809F0BB0B802DBF01FF2793588F
:100AE0005F4F3AF09E3F510578F00C942C060C9421
:100AF00077065F3FE4F3983ED4F386957795679544
:100B0000B795F7959F5FC9F7880F911D96958795C3
:100B100097F90895E1E0660F771F881FBB1F6217E2
:100B200073078407BA0720F0621B730B840BBA0BA0
:100B3000EE1F88F7E09508950E945C0688F09F57A5
:100B400098F0B92F9927B751B0F0E1F0660F771FF1
:100B5000881F991F1AF0BA95C9F714C0B13091F0E7
:100B60000E947606B1E008950C947606672F782FE0
:100B70008827B85F39F0B93FCCF3869577956795AC
:100B8000B395D9F73EF490958095709561957F4F18
:100B90008F4F9F4F0895E89409C097FB3EF49095BE
:100BA0008095709561957F4F8F4F9F4F9923A9F046
:100BB000F92F96E9BB279395F695879577956795D5
:100BC000B795F111F8CFFAF4BB0F11F460FF1BC019
:100BD0006F5F7F4F8F4F9F4F16C0882311F096E9AC
:100BE00011C0772321F09EE8872F762F05C066235A
:100BF00071F096E8862F70E060E02AF09A95660F13
:100C0000771F881FDAF7880F9695879597F90895CB
:100C1000990F0008550FAA0BE0E8FEEF161617060D
:100C2000E807F907C0F012161306E407F50798F075
:100C3000621B730B840B950B39F40A2661F0232B8E
:100C4000242B252B21F408950A2609F4A140A6950A
:100C50008FEF811D811D089597F99F6780E870E0EF
:100C600060E008959FEF80EC089500240A94161622
:100C7000170618060906089500240A94121613068A
:100C8000140605060895092E0394000C11F4882318
:100C900052F0BB0F40F4BF2B11F460FF04C06F5F34
:100CA0007F4F8F4F9F4F089557FD9058440F551F0A
:100CB00059F05F3F71F04795880F97FB991F61F0DE
:100CC0009F3F79F087950895121613061406551F55
:100CD000F2CF4695F1DF08C0161617061806991FC1
:100CE000F1CF86957105610508940895E894BB27B6
:100CF00066277727CB0197F908950E94080608F424
:100D00008FEF08950E9495060C9443060E943506C5
:100D100038F00E943C0620F0952311F00C942C062C
:100D20000C94320611240C9477060E94540670F33A
:100D3000959FC1F3950F50E0551F629FF001729F80
:100D4000BB27F00DB11D639FAA27F00DB11DAA1F8F
:100D5000649F6627B00DA11D661F829F2227B00DDC
:100D6000A11D621F739FB00DA11D621F839FA00D67
:100D7000611D221F749F3327A00D611D231F849FB7
:100D8000600D211D822F762F6A2F11249F5750400E
:100D90009AF0F1F088234AF0EE0FFF1FBB1F661F89
:100DA000771F881F91505040A9F79E3F510580F052
:100DB0000C942C060C9477065F3FE4F3983ED4F332
:100DC000869577956795B795F795E7959F5FC1F7F6
:100DD000FE2B880F911D9695879597F908950E948F
:100DE0000806880B990B0895A1E21A2EAA1BBB1BBB
:100DF000FD010DC0AA1FBB1FEE1FFF1FA217B307E7
:100E0000E407F50720F0A21BB30BE40BF50B661FFC
:100E1000771F881F991F1A9469F7609570958095C0
:100E200090959B01AC01BD01CF010895EE0FFF1F0E
:0C0E30000590F491E02D0994F894FFCF98
:100E3C00000000004201A200CF008F010001DE0083
:100E4C00F20053657420766F6C746167653A20000C
:100E5C006E616E00696E66006F7666002056000D3E
:020E6C000A007A
:00000001FF
